{
  "_format": "hh-sol-artifact-1",
  "contractName": "Marketplace",
  "sourceName": "src/backend/contracts/Marketplace.sol",
  "abi": [
    {
      "inputs": [
        {
          "internalType": "uint256",
          "name": "_feePercent",
          "type": "uint256"
        }
      ],
      "stateMutability": "nonpayable",
      "type": "constructor"
    },
    {
      "anonymous": false,
      "inputs": [
        {
          "indexed": false,
          "internalType": "uint256",
          "name": "itemId",
          "type": "uint256"
        },
        {
          "indexed": true,
          "internalType": "address",
          "name": "nft",
          "type": "address"
        },
        {
          "indexed": false,
          "internalType": "uint256",
          "name": "tokenId",
          "type": "uint256"
        },
        {
          "indexed": false,
          "internalType": "uint256",
          "name": "price",
          "type": "uint256"
        },
        {
          "indexed": true,
          "internalType": "address",
          "name": "seller",
          "type": "address"
        },
        {
          "indexed": true,
          "internalType": "address",
          "name": "buyer",
          "type": "address"
        }
      ],
      "name": "Bought",
      "type": "event"
    },
    {
      "anonymous": false,
      "inputs": [
        {
          "indexed": false,
          "internalType": "uint256",
          "name": "itemId",
          "type": "uint256"
        },
        {
          "indexed": true,
          "internalType": "address",
          "name": "nft",
          "type": "address"
        },
        {
          "indexed": false,
          "internalType": "uint256",
          "name": "tokenId",
          "type": "uint256"
        },
        {
          "indexed": false,
          "internalType": "uint256",
          "name": "price",
          "type": "uint256"
        },
        {
          "indexed": true,
          "internalType": "address",
          "name": "seller",
          "type": "address"
        }
      ],
      "name": "Offered",
      "type": "event"
    },
    {
      "inputs": [],
      "name": "feeAccount",
      "outputs": [
        {
          "internalType": "address payable",
          "name": "",
          "type": "address"
        }
      ],
      "stateMutability": "view",
      "type": "function"
    },
    {
      "inputs": [],
      "name": "feePercent",
      "outputs": [
        {
          "internalType": "uint256",
          "name": "",
          "type": "uint256"
        }
      ],
      "stateMutability": "view",
      "type": "function"
    },
    {
      "inputs": [
        {
          "internalType": "uint256",
          "name": "_itemId",
          "type": "uint256"
        }
      ],
      "name": "getTotalPrice",
      "outputs": [
        {
          "internalType": "uint256",
          "name": "",
          "type": "uint256"
        }
      ],
      "stateMutability": "view",
      "type": "function"
    },
    {
      "inputs": [],
      "name": "itemCount",
      "outputs": [
        {
          "internalType": "uint256",
          "name": "",
          "type": "uint256"
        }
      ],
      "stateMutability": "view",
      "type": "function"
    },
    {
      "inputs": [
        {
          "internalType": "uint256",
          "name": "",
          "type": "uint256"
        }
      ],
      "name": "items",
      "outputs": [
        {
          "internalType": "uint256",
          "name": "itemId",
          "type": "uint256"
        },
        {
          "internalType": "contract IERC721",
          "name": "nft",
          "type": "address"
        },
        {
          "internalType": "uint256",
          "name": "tokenId",
          "type": "uint256"
        },
        {
          "internalType": "uint256",
          "name": "price",
          "type": "uint256"
        },
        {
          "internalType": "address payable",
          "name": "seller",
          "type": "address"
        },
        {
          "internalType": "bool",
          "name": "sold",
          "type": "bool"
        },
        {
          "internalType": "bool",
          "name": "resell",
          "type": "bool"
        }
      ],
      "stateMutability": "view",
      "type": "function"
    },
    {
      "inputs": [
        {
          "internalType": "contract IERC721",
          "name": "_nft",
          "type": "address"
        },
        {
          "internalType": "uint256",
          "name": "_tokenId",
          "type": "uint256"
        },
        {
          "internalType": "uint256",
          "name": "_price",
          "type": "uint256"
        }
      ],
      "name": "makeItem",
      "outputs": [],
      "stateMutability": "nonpayable",
      "type": "function"
    },
    {
      "inputs": [
        {
          "internalType": "uint256",
          "name": "_itemId",
          "type": "uint256"
        }
      ],
      "name": "purchaseItem",
      "outputs": [],
      "stateMutability": "payable",
      "type": "function"
    },
    {
      "inputs": [
        {
          "internalType": "uint256",
          "name": "_itemId",
          "type": "uint256"
        }
      ],
      "name": "resetItem",
      "outputs": [],
      "stateMutability": "nonpayable",
      "type": "function"
    }
  ],
  "bytecode": "0x60c060405234801561001057600080fd5b506040516112e43803806112e483398181016040528101906100329190610094565b60016000819055503373ffffffffffffffffffffffffffffffffffffffff1660808173ffffffffffffffffffffffffffffffffffffffff1660601b815250508060a08181525050506100de565b60008151905061008e816100c7565b92915050565b6000602082840312156100a657600080fd5b60006100b48482850161007f565b91505092915050565b6000819050919050565b6100d0816100bd565b81146100db57600080fd5b50565b60805160601c60a0516111d0610114600039600081816102c6015261038a0152600081816101f101526105b001526111d06000f3fe60806040526004361061007b5760003560e01c8063bfb231d21161004e578063bfb231d21461012a578063ca7dd3751461016d578063d38ea5bf146101aa578063fa00afc7146101c65761007b565b806365e17c9d146100805780636bfb0d01146100ab57806372256a2f146100d65780637fd6f15c146100ff575b600080fd5b34801561008c57600080fd5b506100956101ef565b6040516100a29190610c69565b60405180910390f35b3480156100b757600080fd5b506100c0610213565b6040516100cd9190610d5b565b60405180910390f35b3480156100e257600080fd5b506100fd60048036038101906100f89190610b46565b610219565b005b34801561010b57600080fd5b506101146102c4565b6040516101219190610d5b565b60405180910390f35b34801561013657600080fd5b50610151600480360381019061014c9190610b46565b6102e8565b6040516101649796959493929190610d76565b60405180910390f35b34801561017957600080fd5b50610194600480360381019061018f9190610b46565b610384565b6040516101a19190610d5b565b60405180910390f35b6101c460048036038101906101bf9190610b46565b6103e7565b005b3480156101d257600080fd5b506101ed60048036038101906101e89190610af7565b6107d2565b005b7f000000000000000000000000000000000000000000000000000000000000000081565b60015481565b6002600054141561025f576040517f08c379a000000000000000000000000000000000000000000000000000000000815260040161025690610d3b565b60405180910390fd5b6002600081905550600060026000838152602001908152602001600020905060008160040160146101000a81548160ff02191690831515021790555060018160040160156101000a81548160ff02191690831515021790555050600160008190555050565b7f000000000000000000000000000000000000000000000000000000000000000081565b60026020528060005260406000206000915090508060000154908060010160009054906101000a900473ffffffffffffffffffffffffffffffffffffffff16908060020154908060030154908060040160009054906101000a900473ffffffffffffffffffffffffffffffffffffffff16908060040160149054906101000a900460ff16908060040160159054906101000a900460ff16905087565b600060647f000000000000000000000000000000000000000000000000000000000000000060646103b59190610e2d565b60026000858152602001908152602001600020600301546103d69190610eb4565b6103e09190610e83565b9050919050565b6002600054141561042d576040517f08c379a000000000000000000000000000000000000000000000000000000000815260040161042490610d3b565b60405180910390fd5b6002600081905550600061044082610384565b9050600060026000848152602001908152602001600020905060008311801561046b57506001548311155b6104aa576040517f08c379a00000000000000000000000000000000000000000000000000000000081526004016104a190610d1b565b60405180910390fd5b813410156104ed576040517f08c379a00000000000000000000000000000000000000000000000000000000081526004016104e490610cfb565b60405180910390fd5b8060040160149054906101000a900460ff161561053f576040517f08c379a000000000000000000000000000000000000000000000000000000000815260040161053690610cbb565b60405180910390fd5b8060040160009054906101000a900473ffffffffffffffffffffffffffffffffffffffff1673ffffffffffffffffffffffffffffffffffffffff166108fc82600301549081150290604051600060405180830381858888f193505050501580156105ad573d6000803e3d6000fd5b507f000000000000000000000000000000000000000000000000000000000000000073ffffffffffffffffffffffffffffffffffffffff166108fc8260030154846105f89190610f0e565b9081150290604051600060405180830381858888f19350505050158015610623573d6000803e3d6000fd5b5060018160040160146101000a81548160ff02191690831515021790555060008160040160156101000a81548160ff0219169083151502179055508060010160009054906101000a900473ffffffffffffffffffffffffffffffffffffffff1673ffffffffffffffffffffffffffffffffffffffff166323b872dd303384600201546040518463ffffffff1660e01b81526004016106c393929190610c84565b600060405180830381600087803b1580156106dd57600080fd5b505af11580156106f1573d6000803e3d6000fd5b505050503373ffffffffffffffffffffffffffffffffffffffff168160040160009054906101000a900473ffffffffffffffffffffffffffffffffffffffff1673ffffffffffffffffffffffffffffffffffffffff168260010160009054906101000a900473ffffffffffffffffffffffffffffffffffffffff1673ffffffffffffffffffffffffffffffffffffffff167f8b4c9c8a607d67b321582dd8461041b1dc2ceeca70c8b7f37f8e02095cf2e76d86856002015486600301546040516107bd93929190610de5565b60405180910390a45050600160008190555050565b60026000541415610818576040517f08c379a000000000000000000000000000000000000000000000000000000000815260040161080f90610d3b565b60405180910390fd5b600260008190555060008111610863576040517f08c379a000000000000000000000000000000000000000000000000000000000815260040161085a90610cdb565b60405180910390fd5b6001600081548092919061087690610fd2565b91905055508273ffffffffffffffffffffffffffffffffffffffff166323b872dd3330856040518463ffffffff1660e01b81526004016108b893929190610c84565b600060405180830381600087803b1580156108d257600080fd5b505af11580156108e6573d6000803e3d6000fd5b505050506040518060e0016040528060015481526020018473ffffffffffffffffffffffffffffffffffffffff1681526020018381526020018281526020013373ffffffffffffffffffffffffffffffffffffffff168152602001600015158152602001600115158152506002600060015481526020019081526020016000206000820151816000015560208201518160010160006101000a81548173ffffffffffffffffffffffffffffffffffffffff021916908373ffffffffffffffffffffffffffffffffffffffff160217905550604082015181600201556060820151816003015560808201518160040160006101000a81548173ffffffffffffffffffffffffffffffffffffffff021916908373ffffffffffffffffffffffffffffffffffffffff16021790555060a08201518160040160146101000a81548160ff02191690831515021790555060c08201518160040160156101000a81548160ff0219169083151502179055509050503373ffffffffffffffffffffffffffffffffffffffff168373ffffffffffffffffffffffffffffffffffffffff167f655a0cf9c8db81512be9a76dc1c5ae5380b8816ce6ad659cd61b715e2999d59a6001548585604051610ab893929190610de5565b60405180910390a36001600081905550505050565b600081359050610adc8161116c565b92915050565b600081359050610af181611183565b92915050565b600080600060608486031215610b0c57600080fd5b6000610b1a86828701610acd565b9350506020610b2b86828701610ae2565b9250506040610b3c86828701610ae2565b9150509250925092565b600060208284031215610b5857600080fd5b6000610b6684828501610ae2565b91505092915050565b610b7881610f54565b82525050565b610b8781610f42565b82525050565b610b9681610f66565b82525050565b610ba581610fae565b82525050565b6000610bb8601183610e1c565b9150610bc382611079565b602082019050919050565b6000610bdb601f83610e1c565b9150610be6826110a2565b602082019050919050565b6000610bfe603383610e1c565b9150610c09826110cb565b604082019050919050565b6000610c21601283610e1c565b9150610c2c8261111a565b602082019050919050565b6000610c44601f83610e1c565b9150610c4f82611143565b602082019050919050565b610c6381610fa4565b82525050565b6000602082019050610c7e6000830184610b6f565b92915050565b6000606082019050610c996000830186610b7e565b610ca66020830185610b7e565b610cb36040830184610c5a565b949350505050565b60006020820190508181036000830152610cd481610bab565b9050919050565b60006020820190508181036000830152610cf481610bce565b9050919050565b60006020820190508181036000830152610d1481610bf1565b9050919050565b60006020820190508181036000830152610d3481610c14565b9050919050565b60006020820190508181036000830152610d5481610c37565b9050919050565b6000602082019050610d706000830184610c5a565b92915050565b600060e082019050610d8b600083018a610c5a565b610d986020830189610b9c565b610da56040830188610c5a565b610db26060830187610c5a565b610dbf6080830186610b6f565b610dcc60a0830185610b8d565b610dd960c0830184610b8d565b98975050505050505050565b6000606082019050610dfa6000830186610c5a565b610e076020830185610c5a565b610e146040830184610c5a565b949350505050565b600082825260208201905092915050565b6000610e3882610fa4565b9150610e4383610fa4565b9250827fffffffffffffffffffffffffffffffffffffffffffffffffffffffffffffffff03821115610e7857610e7761101b565b5b828201905092915050565b6000610e8e82610fa4565b9150610e9983610fa4565b925082610ea957610ea861104a565b5b828204905092915050565b6000610ebf82610fa4565b9150610eca83610fa4565b9250817fffffffffffffffffffffffffffffffffffffffffffffffffffffffffffffffff0483118215151615610f0357610f0261101b565b5b828202905092915050565b6000610f1982610fa4565b9150610f2483610fa4565b925082821015610f3757610f3661101b565b5b828203905092915050565b6000610f4d82610f84565b9050919050565b6000610f5f82610f84565b9050919050565b60008115159050919050565b6000610f7d82610f42565b9050919050565b600073ffffffffffffffffffffffffffffffffffffffff82169050919050565b6000819050919050565b6000610fb982610fc0565b9050919050565b6000610fcb82610f84565b9050919050565b6000610fdd82610fa4565b91507fffffffffffffffffffffffffffffffffffffffffffffffffffffffffffffffff8214156110105761100f61101b565b5b600182019050919050565b7f4e487b7100000000000000000000000000000000000000000000000000000000600052601160045260246000fd5b7f4e487b7100000000000000000000000000000000000000000000000000000000600052601260045260246000fd5b7f6974656d20616c726561647920736f6c64000000000000000000000000000000600082015250565b7f5072696365206d7573742062652067726561746572207468616e207a65726f00600082015250565b7f6e6f7420656e6f75676820657468657220746f20636f766572206974656d207060008201527f7269636520616e64206d61726b65742066656500000000000000000000000000602082015250565b7f6974656d20646f65736e27742065786973740000000000000000000000000000600082015250565b7f5265656e7472616e637947756172643a207265656e7472616e742063616c6c00600082015250565b61117581610f72565b811461118057600080fd5b50565b61118c81610fa4565b811461119757600080fd5b5056fea264697066735822122084466a040d5f3b373a9515479d6faaa6854ebfa9dffb18736b8de1c7cf8e3b6c64736f6c63430008040033",
  "linkReferences": {},
  "deployedLinkReferences": {}
}